{
  "contractName": "Oracle",
  "abi": [
    {
      "inputs": [
        {
          "internalType": "address",
          "name": "factory_",
          "type": "address"
        },
        {
          "internalType": "bytes32",
          "name": "INIT_CODE_HASH_",
          "type": "bytes32"
        }
      ],
      "stateMutability": "nonpayable",
      "type": "constructor"
    },
    {
      "inputs": [],
      "name": "CYCLE",
      "outputs": [
        {
          "internalType": "uint256",
          "name": "",
          "type": "uint256"
        }
      ],
      "stateMutability": "view",
      "type": "function",
      "constant": true
    },
    {
      "inputs": [],
      "name": "factory",
      "outputs": [
        {
          "internalType": "address",
          "name": "",
          "type": "address"
        }
      ],
      "stateMutability": "view",
      "type": "function",
      "constant": true
    },
    {
      "inputs": [
        {
          "internalType": "address",
          "name": "",
          "type": "address"
        }
      ],
      "name": "pairObservations",
      "outputs": [
        {
          "internalType": "uint256",
          "name": "timestamp",
          "type": "uint256"
        },
        {
          "internalType": "uint256",
          "name": "price0Cumulative",
          "type": "uint256"
        },
        {
          "internalType": "uint256",
          "name": "price1Cumulative",
          "type": "uint256"
        }
      ],
      "stateMutability": "view",
      "type": "function",
      "constant": true
    },
    {
      "inputs": [
        {
          "internalType": "address",
          "name": "tokenA",
          "type": "address"
        },
        {
          "internalType": "address",
          "name": "tokenB",
          "type": "address"
        }
      ],
      "name": "sortTokens",
      "outputs": [
        {
          "internalType": "address",
          "name": "token0",
          "type": "address"
        },
        {
          "internalType": "address",
          "name": "token1",
          "type": "address"
        }
      ],
      "stateMutability": "pure",
      "type": "function",
      "constant": true
    },
    {
      "inputs": [
        {
          "internalType": "address",
          "name": "tokenA",
          "type": "address"
        },
        {
          "internalType": "address",
          "name": "tokenB",
          "type": "address"
        }
      ],
      "name": "pairFor",
      "outputs": [
        {
          "internalType": "address",
          "name": "pair",
          "type": "address"
        }
      ],
      "stateMutability": "view",
      "type": "function",
      "constant": true
    },
    {
      "inputs": [
        {
          "internalType": "address",
          "name": "tokenA",
          "type": "address"
        },
        {
          "internalType": "address",
          "name": "tokenB",
          "type": "address"
        }
      ],
      "name": "update",
      "outputs": [],
      "stateMutability": "nonpayable",
      "type": "function"
    },
    {
      "inputs": [
        {
          "internalType": "address",
          "name": "tokenIn",
          "type": "address"
        },
        {
          "internalType": "uint256",
          "name": "amountIn",
          "type": "uint256"
        },
        {
          "internalType": "address",
          "name": "tokenOut",
          "type": "address"
        }
      ],
      "name": "consult",
      "outputs": [
        {
          "internalType": "uint256",
          "name": "amountOut",
          "type": "uint256"
        }
      ],
      "stateMutability": "view",
      "type": "function",
      "constant": true
    }
  ],
  "bytecode": "0x60a060405234801561001057600080fd5b50604051610bf0380380610bf08339818101604052604081101561003357600080fd5b5080516020909101516001600160601b031960609290921b9190911660805260005560805160601c610b796100776000398061050a52806105675250610b796000f3fe608060405234801561001057600080fd5b506004361061007d5760003560e01c806396ed28f91161005b57806396ed28f9146101965780639e8d48d0146101fa578063c45a015514610202578063c640752d1461020a5761007d565b8063402e1abf14610082578063544caa56146100d35780638c86f1e414610141575b600080fd5b6100b56004803603602081101561009857600080fd5b503573ffffffffffffffffffffffffffffffffffffffff16610247565b60408051938452602084019290925282820152519081900360600190f35b61010e600480360360408110156100e957600080fd5b5073ffffffffffffffffffffffffffffffffffffffff81358116916020013516610267565b6040805173ffffffffffffffffffffffffffffffffffffffff938416815291909216602082015281519081900390910190f35b6101846004803603606081101561015757600080fd5b5073ffffffffffffffffffffffffffffffffffffffff8135811691602081013591604090910135166103ba565b60408051918252519081900360200190f35b6101d1600480360360408110156101ac57600080fd5b5073ffffffffffffffffffffffffffffffffffffffff8135811691602001351661047b565b6040805173ffffffffffffffffffffffffffffffffffffffff9092168252519081900360200190f35b61018461055f565b6101d1610565565b6102456004803603604081101561022057600080fd5b5073ffffffffffffffffffffffffffffffffffffffff81358116916020013516610589565b005b600160208190526000918252604090912080549181015460029091015483565b6000808273ffffffffffffffffffffffffffffffffffffffff168473ffffffffffffffffffffffffffffffffffffffff1614156102ef576040517f08c379a0000000000000000000000000000000000000000000000000000000008152600401808060200182810382526024815260200180610b206024913960400191505060405180910390fd5b8273ffffffffffffffffffffffffffffffffffffffff168473ffffffffffffffffffffffffffffffffffffffff161061032957828461032c565b83835b909250905073ffffffffffffffffffffffffffffffffffffffff82166103b357604080517f08c379a000000000000000000000000000000000000000000000000000000000815260206004820152601d60248201527f4d64657853776170466163746f72793a205a45524f5f41444452455353000000604482015290519081900360640190fd5b9250929050565b6000806103c7858461047b565b73ffffffffffffffffffffffffffffffffffffffff81166000908152600160205260408120805492935091420390806103ff8561065c565b509150915060006104108a89610267565b5090508973ffffffffffffffffffffffffffffffffffffffff168173ffffffffffffffffffffffffffffffffffffffff16141561046457610457856001015484868c6108ae565b9650505050505050610474565b610457856002015483868c6108ae565b9392505050565b600080600061048a8585610267565b604080517fffffffffffffffffffffffffffffffffffffffff000000000000000000000000606094851b811660208084019190915293851b81166034830152825160288184030181526048830184528051908501206000547fff0000000000000000000000000000000000000000000000000000000000000060688501527f000000000000000000000000000000000000000000000000000000000000000090961b9091166069830152607d820152609d808201949094528151808203909401845260bd019052815191012095945050505050565b61038481565b7f000000000000000000000000000000000000000000000000000000000000000081565b6000610595838361047b565b73ffffffffffffffffffffffffffffffffffffffff81166000908152600160205260409020805491925090420361038481101561063357604080517f08c379a000000000000000000000000000000000000000000000000000000000815260206004820152601e60248201527f4d4445584f7261636c653a20504552494f445f4e4f545f454c41505345440000604482015290519081900360640190fd5b60008061063f8561065c565b504286556001860191909155600290940193909355505050505050565b6000806000610669610921565b90508373ffffffffffffffffffffffffffffffffffffffff16635909c0d56040518163ffffffff1660e01b815260040160206040518083038186803b1580156106b157600080fd5b505afa1580156106c5573d6000803e3d6000fd5b505050506040513d60208110156106db57600080fd5b5051604080517f5a3d5493000000000000000000000000000000000000000000000000000000008152905191945073ffffffffffffffffffffffffffffffffffffffff861691635a3d549391600480820192602092909190829003018186803b15801561074757600080fd5b505afa15801561075b573d6000803e3d6000fd5b505050506040513d602081101561077157600080fd5b5051604080517f0902f1ac00000000000000000000000000000000000000000000000000000000815290519193506000918291829173ffffffffffffffffffffffffffffffffffffffff891691630902f1ac916004808301926060929190829003018186803b1580156107e357600080fd5b505afa1580156107f7573d6000803e3d6000fd5b505050506040513d606081101561080d57600080fd5b5080516020820151604090920151909450909250905063ffffffff808216908516146108a45780840363ffffffff8116610847848661092b565b517bffffffffffffffffffffffffffffffffffffffffffffffffffffffff1602969096019563ffffffff811661087d858561092b565b517bffffffffffffffffffffffffffffffffffffffffffffffffffffffff16029590950194505b5050509193909250565b60006108b8610ad7565b604051806020016040528085888803816108ce57fe5b047bffffffffffffffffffffffffffffffffffffffffffffffffffffffff16905290506109036108fe8285610a23565b610ad0565b71ffffffffffffffffffffffffffffffffffff169695505050505050565b63ffffffff421690565b610933610ad7565b6000826dffffffffffffffffffffffffffff16116109b257604080517f08c379a000000000000000000000000000000000000000000000000000000000815260206004820152601760248201527f4669786564506f696e743a204449565f42595f5a45524f000000000000000000604482015290519081900360640190fd5b6040805160208101909152806dffffffffffffffffffffffffffff84167bffffffffffffffffffffffffffff0000000000000000000000000000607087901b16816109f957fe5b047bffffffffffffffffffffffffffffffffffffffffffffffffffffffff16815250905092915050565b610a2b610ae9565b6000821580610a6657505082517bffffffffffffffffffffffffffffffffffffffffffffffffffffffff1682810290838281610a6357fe5b04145b610abb576040517f08c379a0000000000000000000000000000000000000000000000000000000008152600401808060200182810382526023815260200180610afd6023913960400191505060405180910390fd5b60408051602081019091529081529392505050565b5160701c90565b60408051602081019091526000815290565b604051806020016040528060008152509056fe4669786564506f696e743a204d554c5449504c49434154494f4e5f4f564552464c4f574d64657853776170466163746f72793a204944454e544943414c5f414444524553534553a2646970667358221220a741b8f778f300fba9a3495925c988a34e38d1d2da307f8025ec6f7dee42ade564736f6c63430006060033",
  "immutableReferences": {
    "19": [
      {
        "length": 32,
        "start": 1290
      },
      {
        "length": 32,
        "start": 1383
      }
    ]
  },
  "source": "pragma solidity =0.6.6;\r\n\r\nimport \"./libs/SafeMath.sol\";\r\nimport \"./libs/FixedPoint.sol\";\r\nimport \"./libs/OracleLibrary.sol\";\r\nimport \"@nomiclabs/buidler/console.sol\";\r\n\r\ncontract Oracle {\r\n    using FixedPoint for *;\r\n    using SafeMath for uint;\r\n\r\n    struct Observation {\r\n        uint timestamp;\r\n        uint price0Cumulative;\r\n        uint price1Cumulative;\r\n    }\r\n\r\n    address public immutable factory;\r\n    uint public constant CYCLE = 15 minutes;\r\n\r\n    bytes32 INIT_CODE_HASH;\r\n\r\n    // mapping from pair address to a list of price observations of that pair\r\n    mapping(address => Observation) public pairObservations;\r\n\r\n    constructor(address factory_, bytes32 INIT_CODE_HASH_) public {\r\n        factory = factory_;\r\n        INIT_CODE_HASH = INIT_CODE_HASH_;\r\n    }\r\n\r\n    function sortTokens(address tokenA, address tokenB) public pure returns (address token0, address token1) {\r\n        require(tokenA != tokenB, 'MdexSwapFactory: IDENTICAL_ADDRESSES');\r\n        (token0, token1) = tokenA < tokenB ? (tokenA, tokenB) : (tokenB, tokenA);\r\n        require(token0 != address(0), 'MdexSwapFactory: ZERO_ADDRESS');\r\n    }\r\n\r\n    function pairFor(address tokenA, address tokenB) public view returns (address pair) {\r\n        (address token0, address token1) = sortTokens(tokenA, tokenB);\r\n        pair = address(uint(keccak256(abi.encodePacked(\r\n                hex'ff',\r\n                factory,\r\n                keccak256(abi.encodePacked(token0, token1)),\r\n                INIT_CODE_HASH\r\n            ))));\r\n    }\r\n\r\n    function update(address tokenA, address tokenB) external {\r\n        address pair = pairFor(tokenA, tokenB);\r\n\r\n        Observation storage observation = pairObservations[pair];\r\n        uint timeElapsed = block.timestamp - observation.timestamp;\r\n        require(timeElapsed >= CYCLE, 'MDEXOracle: PERIOD_NOT_ELAPSED');\r\n        (uint price0Cumulative, uint price1Cumulative,) = MdexOracleLibrary.currentCumulativePrices(pair);\r\n        observation.timestamp = block.timestamp;\r\n        observation.price0Cumulative = price0Cumulative;\r\n        observation.price1Cumulative = price1Cumulative;\r\n    }\r\n\r\n\r\n    function computeAmountOut(\r\n        uint priceCumulativeStart, uint priceCumulativeEnd,\r\n        uint timeElapsed, uint amountIn\r\n    ) private pure returns (uint amountOut) {\r\n        FixedPoint.uq112x112 memory priceAverage = FixedPoint.uq112x112(\r\n            uint224((priceCumulativeEnd - priceCumulativeStart) / timeElapsed)\r\n        );\r\n        amountOut = priceAverage.mul(amountIn).decode144();\r\n    }\r\n\r\n\r\n    function consult(address tokenIn, uint amountIn, address tokenOut) external view returns (uint amountOut) {\r\n        address pair = pairFor(tokenIn, tokenOut);\r\n        Observation storage observation = pairObservations[pair];\r\n        uint timeElapsed = block.timestamp - observation.timestamp;\r\n        (uint price0Cumulative, uint price1Cumulative,) = MdexOracleLibrary.currentCumulativePrices(pair);\r\n        (address token0,) = sortTokens(tokenIn, tokenOut);\r\n\r\n        if (token0 == tokenIn) {\r\n            return computeAmountOut(observation.price0Cumulative, price0Cumulative, timeElapsed, amountIn);\r\n        } else {\r\n            return computeAmountOut(observation.price1Cumulative, price1Cumulative, timeElapsed, amountIn);\r\n        }\r\n    }\r\n}",
  "sourcePath": "C:/Users/nikolaj/Documents/development/swap-mining/contracts/Oracle.sol",
  "compiler": {
    "name": "solc",
    "version": "0.6.6+commit.6c089d02.Emscripten.clang"
  },
  "schemaVersion": "3.3.4",
  "updatedAt": "2021-05-15T10:43:57.047Z",
  "networkType": "ethereum",
  "devdoc": {
    "methods": {}
  },
  "userdoc": {
    "methods": {}
  }
}