{
  "contractName": "SafeMath",
  "abi": [
    {
      "inputs": [],
      "name": "wad",
      "outputs": [
        {
          "internalType": "uint256",
          "name": "",
          "type": "uint256"
        }
      ],
      "stateMutability": "pure",
      "type": "function"
    },
    {
      "inputs": [],
      "name": "ray",
      "outputs": [
        {
          "internalType": "uint256",
          "name": "",
          "type": "uint256"
        }
      ],
      "stateMutability": "pure",
      "type": "function"
    }
  ],
  "bytecode": "0x60b2610025600b82828239805160001a60731461001857fe5b30600052607381538281f3fe7300000000000000000000000000000000000000003014608060405260043610603d5760003560e01c8063416a8b201460425780637df38c5b14605a575b600080fd5b60486060565b60408051918252519081900360200190f35b60486070565b6b033b2e3c9fd0803ce800000090565b670de0b6b3a76400009056fea2646970667358221220ad87b527431afe1aa247a112fbbb3309d741aa7d20de93b7259a031b055614a664736f6c63430006060033",
  "immutableReferences": {},
  "source": "pragma solidity 0.6.6;\r\nlibrary SafeMath {\r\n    uint256 constant WAD = 10 ** 18;\r\n    uint256 constant RAY = 10 ** 27;\r\n\r\n    function wad() public pure returns (uint256) {\r\n        return WAD;\r\n    }\r\n\r\n    function ray() public pure returns (uint256) {\r\n        return RAY;\r\n    }\r\n\r\n    function add(uint256 a, uint256 b) internal pure returns (uint256) {\r\n        uint256 c = a + b;\r\n        require(c >= a, \"SafeMath: addition overflow\");\r\n\r\n        return c;\r\n    }\r\n\r\n    function sub(uint256 a, uint256 b) internal pure returns (uint256) {\r\n        return sub(a, b, \"SafeMath: subtraction overflow\");\r\n    }\r\n\r\n    function sub(uint256 a, uint256 b, string memory errorMessage) internal pure returns (uint256) {\r\n        require(b <= a, errorMessage);\r\n        uint256 c = a - b;\r\n\r\n        return c;\r\n    }\r\n\r\n    function mul(uint256 a, uint256 b) internal pure returns (uint256) {\r\n        // Gas optimization: this is cheaper than requiring 'a' not being zero, but the\r\n        // benefit is lost if 'b' is also tested.\r\n        // See: https://github.com/OpenZeppelin/openzeppelin-contracts/pull/522\r\n        if (a == 0) {\r\n            return 0;\r\n        }\r\n\r\n        uint256 c = a * b;\r\n        require(c / a == b, \"SafeMath: multiplication overflow\");\r\n\r\n        return c;\r\n    }\r\n\r\n    function div(uint256 a, uint256 b) internal pure returns (uint256) {\r\n        return div(a, b, \"SafeMath: division by zero\");\r\n    }\r\n\r\n    function div(uint256 a, uint256 b, string memory errorMessage) internal pure returns (uint256) {\r\n        // Solidity only automatically asserts when dividing by 0\r\n        require(b > 0, errorMessage);\r\n        uint256 c = a / b;\r\n        // assert(a == b * c + a % b); // There is no case in which this doesn't hold\r\n\r\n        return c;\r\n    }\r\n\r\n    function mod(uint256 a, uint256 b) internal pure returns (uint256) {\r\n        return mod(a, b, \"SafeMath: modulo by zero\");\r\n    }\r\n\r\n    function mod(uint256 a, uint256 b, string memory errorMessage) internal pure returns (uint256) {\r\n        require(b != 0, errorMessage);\r\n        return a % b;\r\n    }\r\n\r\n    function min(uint256 a, uint256 b) internal pure returns (uint256) {\r\n        return a <= b ? a : b;\r\n    }\r\n\r\n    function max(uint256 a, uint256 b) internal pure returns (uint256) {\r\n        return a >= b ? a : b;\r\n    }\r\n\r\n    function sqrt(uint256 a) internal pure returns (uint256 b) {\r\n        if (a > 3) {\r\n            b = a;\r\n            uint256 x = a / 2 + 1;\r\n            while (x < b) {\r\n                b = x;\r\n                x = (a / x + x) / 2;\r\n            }\r\n        } else if (a != 0) {\r\n            b = 1;\r\n        }\r\n    }\r\n\r\n    function wmul(uint256 a, uint256 b) internal pure returns (uint256) {\r\n        return mul(a, b) / WAD;\r\n    }\r\n\r\n    function wmulRound(uint256 a, uint256 b) internal pure returns (uint256) {\r\n        return add(mul(a, b), WAD / 2) / WAD;\r\n    }\r\n\r\n    function rmul(uint256 a, uint256 b) internal pure returns (uint256) {\r\n        return mul(a, b) / RAY;\r\n    }\r\n\r\n    function rmulRound(uint256 a, uint256 b) internal pure returns (uint256) {\r\n        return add(mul(a, b), RAY / 2) / RAY;\r\n    }\r\n\r\n    function wdiv(uint256 a, uint256 b) internal pure returns (uint256) {\r\n        return div(mul(a, WAD), b);\r\n    }\r\n\r\n    function wdivRound(uint256 a, uint256 b) internal pure returns (uint256) {\r\n        return add(mul(a, WAD), b / 2) / b;\r\n    }\r\n\r\n    function rdiv(uint256 a, uint256 b) internal pure returns (uint256) {\r\n        return div(mul(a, RAY), b);\r\n    }\r\n\r\n    function rdivRound(uint256 a, uint256 b) internal pure returns (uint256) {\r\n        return add(mul(a, RAY), b / 2) / b;\r\n    }\r\n\r\n    function wpow(uint256 x, uint256 n) internal pure returns (uint256) {\r\n        uint256 result = WAD;\r\n        while (n > 0) {\r\n            if (n % 2 != 0) {\r\n                result = wmul(result, x);\r\n            }\r\n            x = wmul(x, x);\r\n            n /= 2;\r\n        }\r\n        return result;\r\n    }\r\n\r\n    function rpow(uint256 x, uint256 n) internal pure returns (uint256) {\r\n        uint256 result = RAY;\r\n        while (n > 0) {\r\n            if (n % 2 != 0) {\r\n                result = rmul(result, x);\r\n            }\r\n            x = rmul(x, x);\r\n            n /= 2;\r\n        }\r\n        return result;\r\n    }\r\n}",
  "sourcePath": "C:\\Users\\nikolaj\\Documents\\development\\swap-mining\\contracts\\libs\\SafeMath.sol",
  "compiler": {
    "name": "solc",
    "version": "0.6.6+commit.6c089d02.Emscripten.clang"
  },
  "schemaVersion": "3.3.4",
  "updatedAt": "2021-05-15T10:42:56.608Z",
  "devdoc": {
    "methods": {}
  },
  "userdoc": {
    "methods": {}
  }
}